:020000040800F2
:1000000000000220311800089B0900089D09000823
:100010009F090008A1090008A309000800000000CA
:10002000000000000000000000000000A50900081A
:10003000A709000800000000A9090008AB09000892
:10004000811800088118000881180008811800082C
:10005000811800088118000881180008811800081C
:10006000811800088118000881180008811800080C
:1000700081180008811800088118000881180008FC
:1000800081180008811800088118000881180008EC
:1000900081180008811800088118000881180008DC
:1000A00081180008811800088118000881180008CC
:1000B00081180008811800088118000881180008BC
:1000C00081180008811800088118000881180008AC
:1000D000811800088118000881180008811800089C
:1000E000811800088118000881180008811800088C
:1000F000811800088118000881180008811800087C
:10010000811800088118000881180008811800086B
:10011000811800088118000881180008811800085B
:10012000811800088118000881180008811800084B
:10013000811800080000000000000000811800087D
:10014000811800088118000881180008811800082B
:10015000811800088118000881180008811800081B
:10016000811800088118000881180008811800080B
:10017000811800088118000881180008000000009C
:1001800000000000811800080000000000000000CE
:10019000811800080000000000000000811800081D
:1001A00000000000000000000000000081180008AE
:1001B00081180008811800088118000881180008BB
:0401C000811800089A
:1001C40010B5054C237833B9044B13B10448AFF38D
:1001D40000800123237010BD3400002000000000C3
:1001E400DC18000808B5034B1BB103490348AFF3FF
:1001F400008008BD0000000038000020DC18000862
:10020400034613F8012B002AFBD1181A0138704752
:1002140053B94AB9002908BF00281CBF4FF0FF3169
:100224004FF0FF3000F088B9ADF1080C6DE904CE51
:1002340000F006F8DDF804E0DDE9022304B07047BD
:100244002DE9F047089D8E4604468846002B4AD186
:100254008A42174662D9B2FA82F64EB1C6F1200339
:1002640001FA06F820FA03F3B74043EA0808B44059
:100274004FEA174E1FFA87FCB8FBFEF1230C0EFB66
:10028400118843EA084301FB0CF29A4209D9FB188E
:1002940001F1FF3080F0EA809A4240F2E7800239AF
:1002A4003B449A1AA3B2B2FBFEF00EFB102243EABF
:1002B400024300FB0CFC9C4509D9FB1800F1FF32FA
:1002C40080F0D6809C4540F2D3803B44023840EA1B
:1002D4000140A3EB0C0300211DB1F3400022C5E94A
:1002E4000032BDE8F0878B4205D90DB1C5E90001A4
:1002F40000210846F5E7B3FA83F1002946D1734596
:1003040002D3824200F20581841A6EEB03020120BB
:100314009046002DE5D0C5E90048E2E7002A00F048
:100324009080B2FA82F6002E40F0A4808A1A030C60
:100334004FEA174E80B2BCB20121B2FBFEFC0EFBA9
:100344001C2243EA024304FB0CF29A4207D9FB182D
:100354000CF1FF3802D29A4200F2E080C4469B1AA4
:10036400B3FBFEF20EFB123340EA034302FB04F438
:100374009C4207D9FB1802F1FF3002D29C4200F2E2
:10038400CA8002461B1B42EA0C40A5E7C1F12006C5
:100394008B4022FA06F71F430EFA01F420FA06F303
:1003A4002EFA06FE4FEA1749234300FA01F81FFA12
:1003B40087FCBEFBF9F01C0C09FB10EE44EA0E446A
:1003C40000FB0CFEA64502FA01F209D93C1900F122
:1003D400FF3A80F09C80A64540F2998002383C4464
:1003E400A4EB0E041FFA83FEB4FBF9F309FB1344D8
:1003F4004EEA044403FB0CFCA44508D93C1903F160
:10040400FF3E80F08280A4457FD9023B3C4443EA0E
:100414000040A4EB0C04A0FB02EC64457346E146E7
:1004240062D35FD05DB1B8EB030264EB090404FA54
:1004340006F622FA01F31E43CC40C5E9006400210C
:100444004FE7B1FBF2FC010C41EA0E4180B240EAF5
:1004540001423B4638463C46B846BE462026B1FBE0
:10046400F7F1A2EB080241EA0C4166E7014618E7FE
:1004740010462CE7C6F120022EFA02F3B740B14031
:1004840020FA02F24FEA174E0A43B3FBFEF8BCB25D
:100494000EFB1833110C41EA034108FB04F9B04088
:1004A40089454FEA104380B23ED9791808F1FF3CE0
:1004B40001D289451FD8A1EB0901B1FBFEF909FB63
:1004C40004F80EFB191192B242EA0142424529D2C4
:1004D400BA1809F1FF31C4D24245C2D2A9F10201CE
:1004E4003A44BEE7F0459DD2BEEB02036CEB070C29
:1004F4000138E14696E7A7EB09094944A8F1020C43
:10050400B1FBFEF909FB04F8DBE773467FE75046CD
:1005140066E70846FDE63B44023A33E7ACF1020CD9
:100524003B441CE749469CE7A1EB0901C446B1FBE7
:10053400FEF909FB04F8C4E7704700BF2DE9F04158
:100544008AB00024059406940794089409940194AD
:100554003A4B1A6B42F004021A631A6B02F004025B
:100564000192019A02941A6B42F080021A631A6B88
:1005740002F080020292029A03941A6B42F0010282
:100584001A631A6B02F001020392039A04941A6B21
:1005940042F002021A631B6B03F002030493049BF0
:1005A400274F224642F22001384601F055F8254EE5
:1005B40022464FF47071304601F04EF8DFF888801F
:1005C40022464FF44071404601F046F84FF4005380
:1005D40005930694079405A9304600F04DFF0C23BB
:1005E400059302230693079403230893072309938F
:1005F40005A9384600F040FF42F220030593012587
:1006040006950794089405A9384600F035FF4FF481
:100614007073059306950794089405A9304600F075
:100624002BFF4FF44073059306950794089405A98E
:10063400404600F021FF0AB0BDE8F08100380240D6
:1006440000000240000802400004024072B6FEE7C7
:1006540000B587B00023029303930493059300939A
:1006640001931448144A02604722426083604FF6A3
:10067400FF72C26003614361836100F065FA90B95F
:100684004FF48053029302A90A4800F096FA60B925
:100694000023009301936946064800F00DFB30B92E
:1006A40007B05DF804FBFFF7D1FFFFF7CFFFFFF7BB
:1006B400CDFF00BF680000200000014000B595B0E8
:1006C4003422002107A801F0DAF8002302930393EF
:1006D40004930593069300931F4A116C41F08051D3
:1006E4001164126C02F080520092009A01931B492B
:1006F4000A6822F4404242F480420A600A6802F422
:1007040040420192019A0222079201210A9110218A
:100714000B910D920E9308230F934823109311927B
:100724001292139207A800F085FC80B90F2302935C
:1007340002210391002304934FF4805205920693FF
:1007440002A800F0FFFA20B915B05DF804FBFFF72A
:100754007DFFFFF77BFF00BF0038024000700040C0
:1007640000B58BB001F018F8FFF7A8FFFFF7E6FE1D
:10077400FFF76EFF1A4D002303931A4B1B88029355
:10078400194B1B680193194B1B880093184B1B686A
:10079400184A194904A800F0B7F8AC4604AC0FCCC9
:1007A400ACE80F0094E803008CE80300322001F069
:1007B4001FF8284600F0EAF8094C002211462046AA
:1007C40000F0D8F80D49204600F0C2F820210C486A
:1007D40000F048FF4FF47A7001F00AF8ECE700BF2C
:1007E4005000002000000020040000200800002029
:1007F4000C0000201000002018000020F41800084D
:1008040000000240F8B505460F46164600240DE0E8
:100814002B68686847FA04F202F0010230F81410F9
:1008240053F8240000F018FF0134E4B2B442EFD3CB
:100834000122A98A286900F00FFF00BF00BF00BF92
:1008440000BF0022A98A286900F006FF012000F0F9
:10085400CFFFF8BD38B504460D4600228189806873
:1008640000F0FAFEA37D63B9042225FA02F12046C2
:10087400FFF7C8FF042205F00F012046FFF7C2FF6F
:1008840038BD082229462046FFF7BCFFF8E738B5F3
:1008940004460D4601228189806800F0DDFEA37DB7
:1008A40063B9042225FA02F12046FFF7ABFF0422C4
:1008B40005F00F012046FFF7A5FF38BD08222946A1
:1008C4002046FFF79FFFF8E710B50446837DBBB9C8
:1008D4003321FFF7BFFF32212046FFF7BBFF28215A
:1008E4002046FFF7B7FF01212046FFF7B3FF0C2195
:1008F4002046FFF7AFFF06212046FFF7ABFF10BDF0
:100904003821FFF7A7FFEEE710B586B004469DF83F
:100914002C008DF81600BDF82800ADF814000998D5
:100924000490BDF82000ADF80C00029301920091F0
:100934006846FFF7C9FFA646EC46BCE80F00AEE8E0
:100944000F009CE803008EE80300204606B010BDAB
:1009540070B506460D46002405E0295D3046FFF7D4
:1009640096FF0134E4B22846FFF74AFC8442F4D3EC
:1009740070BD000008B5044B595C1144C9B281F044
:100984008001FFF767FF08BD0019000808B50121C1
:10099400FFF760FF08BDFEE7FEE7FEE7FEE7FEE7C0
:1009A40070477047704708B500F010FF08BD00009D
:1009B40082B0002100910B4B5A6C42F480425A647D
:1009C4005A6C02F480420092009A01911A6C42F02F
:1009D40080521A641B6C03F080530193019B02B094
:1009E400704700BF003802400268094B9A4200D0A9
:1009F400704782B000230193064B5A6C42F0010207
:100A04005A645B6C03F001030193019B02B07047CD
:100A1400000001400038024010B4036A046A24F064
:100A240001040462846924F0F00C4CEA021223F0FD
:100A34000A030B43826103625DF8044B704710B4F0
:100A4400036A046A24F010040462846924F4704C78
:100A54004CEA023223F0A00343EA011382610362E9
:100A64005DF8044B7047836823F070030B4343F035
:100A740007038360704700000368324A904212D033
:100A8400B0F1804F0FD0A2F57C4290420BD002F51A
:100A94008062904207D002F58062904203D002F552
:100AA4007842904203D123F070034A681343254AE5
:100AB40090422AD0B0F1804F27D0A2F57C429042D8
:100AC40023D002F5806290421FD002F580629042EA
:100AD4001BD002F57842904217D002F57052904232
:100AE40013D002F5806290420FD002F580629042EA
:100AF4000BD0A2F59832904207D002F58062904262
:100B040003D002F58062904203D123F44073CA6893
:100B1400134323F080034A6913438A68C2620A6854
:100B24008262084A904203D002F58062904201D169
:100B34000A690263026842F004020260012242610F
:100B4400036070470000014040B310B5044690F8BC
:100B54003D30F3B1022384F83D30214651F8040BB3
:100B6400FFF78AFF012384F8463084F83E3084F886
:100B74003F3084F8403084F8413084F8423084F8BF
:100B8400433084F8443084F8453084F83D30002004
:100B940010BD80F83C30FFF727FFDBE701207047EA
:100BA40010B4846824F47F4C42EA03220A4342EAE4
:100BB4000C0282605DF8044B704790F83C30012BC6
:100BC40078D010B50446012380F83C30022380F825
:100BD4003D300268936823F47F4323F077039360E6
:100BE4000B68602B4CD023D8402B54D011D8202B29
:100BF40003D00AD80BB1102B05D119462068FFF792
:100C040032FF002028E0012026E0302BF5D001201F
:100C140022E0502B0AD1CA6849680068FFF7FCFE3D
:100C240050212068FFF71FFF002015E0012013E08A
:100C3400B3F5805F3AD0B3F5005F14D0702B37D191
:100C4400CB684A6889680068FFF7AAFF226893683E
:100C540043F0770393600020012384F83D300023A0
:100C640084F83C3010BDCB684A6889680068FFF797
:100C740097FF2268936843F4804393600020EBE776
:100C8400CA6849680068FFF7DAFE60212068FFF748
:100C9400EAFE0020E0E7CA6849680068FFF7BCFE86
:100CA40040212068FFF7DFFE0020D5E70020D3E7CE
:100CB4000120D1E70220704790F83C20012A3DD062
:100CC40010B40346012280F83C20022280F83D2023
:100CD40002685068946820F0700C086840EA0C00C0
:100CE40050601A68164882421AD0B2F1804F17D069
:100CF400A0F57C40824213D000F5806082420FD080
:100D040000F5806082420BD000F57840824207D023
:100D140000F57050824203D0A0F59430824204D191
:100D240024F08004496821439160012283F83D2026
:100D3400002083F83C005DF8044B704702207047A4
:100D440000000140002800F09B8070B50D46044669
:100D54004F4B1B6803F00F038B4208D2CBB24C4AB3
:100D64001370136803F00F038B4240F08B802368E9
:100D740013F0020F17D013F0040F04D0454A936800
:100D840043F4E0539360236813F0080F04D0414AFE
:100D9400936843F4604393603E4A936823F0F003FE
:100DA400A1680B439360236813F0010F32D063688A
:100DB400012B21D09A1E012A25D9364A126812F035
:100DC400020F61D033498A6822F0030213438B6017
:100DD40000F008FD06462F4B9B6803F00C03626885
:100DE400B3EB820F16D000F0FDFC801B41F2883378
:100DF4009842F0D9032042E0264A126812F4003FD8
:100E0400E0D101203BE0234A126812F0007FD9D1DF
:100E1400012034E01E4B1B6803F00F03AB4207D9DB
:100E2400EAB21B4B1A701B6803F00F03AB422DD1BF
:100E3400236813F0040F06D0164A936823F4E05392
:100E4400E1680B439360236813F0080F07D0114A3D
:100E5400936823F46043216943EAC103936000F07B
:100E640021F80C4B9B68C3F303130B4AD35CD840A3
:100E74000A4B18600A4B186800F068FC002070BD2B
:100E8400012070470120FAE70120F8E70120F6E786
:100E9400003C0240003802400419000830000020E1
:100EA4002C00002008B5604B9B6803F00C03082B52
:100EB40006D00C2B5ED0042B40F0B4805B4833E0AA
:100EC400594B5A6802F03F025B6813F4800F2CD030
:100ED400554B5868C0F388104FEA401CBCEB000C1B
:100EE4006EEB0E0E4FEA8E1343EA9C634FEA8C11AD
:100EF400B1EB0C0163EB0E03DB0043EA5173C90051
:100F040011EB000C43F10003590200234FEA4C207B
:100F140041EADC51FFF77CF9434B5B68C3F30143BF
:100F240001335B00B0FBF3F008BD3F4B5868C0F3DE
:100F340088104FEA401CBCEB000C6EEB0E0E4FEA1F
:100F44008E1343EA9C634FEA8C11B1EB0C0163EB03
:100F54000E03DB0043EA5173C90011EB000C43F1AB
:100F64000003990200234FEA8C2041EA9C51FFF7C9
:100F74004FF9D1E72C4B5A6802F03F025B6813F437
:100F8400800F2AD0284B5868C0F388104FEA401CC1
:100F9400BCEB000C6EEB0E0E4FEA8E1343EA9C631F
:100FA4004FEA8C11B1EB0C0163EB0E03DB0043EA57
:100FB4005173C90011EB000C43F1000359020023E3
:100FC4004FEA4C2041EADC51FFF722F9164B5B68EB
:100FD400C3F30273B0FBF3F0A6E7134B5868C0F3F6
:100FE40088104FEA401CBCEB000C6EEB0E0E4FEA6F
:100FF4008E1343EA9C634FEA8C11B1EB0C0163EB53
:101004000E03DB0043EA5173C90011EB000C43F1FA
:101014000003990200234FEA8C2041EA9C51FFF718
:10102400F7F8D3E702487FE70038024000127A005D
:101034000024F400002800F0018270B582B0044658
:10104400036813F0010F41D0994B9B6803F00C0324
:10105400042B32D0964B9B6803F00C03082B27D04B
:10106400934B9B6803F00C030C2B59D06368B3F5C6
:10107400803F5BD0B3F5A02F5ED08D4B1A6822F46D
:1010840080321A601A6822F480221A606368002B86
:101094005CD000F0A7FB0546854B1B6813F4003FAA
:1010A40014D100F09FFB401B6428F5D90320CCE148
:1010B4007F4B5B6813F4800FD2D07D4B1B6813F415
:1010C400003F03D06368002B00F0BA81236813F05B
:1010D400020F60D0764B9B6813F00C0F4AD0744B10
:1010E4009B6803F00C03082B3FD0714B9B6803F003
:1010F4000C030C2B69D0E368002B75D06D4B0122D7
:101104001A6000F06FFB0546694B1B6813F0020F71
:1011140061D100F067FB401B0228F5D9032094E15C
:10112400634B5B6813F4800FA0D0C6E7604A136872
:1011340043F480331360A9E75D4B1A6842F48022BC
:101144001A601A6842F480321A609FE700F04AFB82
:101154000546574B1B6813F4003FB7D000F042FB21
:10116400401B6428F5D903206FE1514B5B6813F4ED
:10117400800FBAD14E4B1B6813F0020F03D0E36803
:10118400012B40F05F814A4A136823F0F803216978
:1011940043EAC1031360236813F0080F49D063695D
:1011A400002B33D0434B0122C3F8802E00F01AFBEE
:1011B40005463F4B5B6F13F0020F3AD100F012FB70
:1011C400401B0228F5D903203FE1394B5B6813F437
:1011D400800F90D1CEE7364A136823F0F8032169D3
:1011E40043EAC1031360D6E7324B00221A6000F0D1
:1011F400F9FA05462E4B1B6813F0020FCBD000F012
:10120400F1FA401B0228F5D903201EE1294B0022E4
:10121400C3F8802E00F0E6FA0546254B5B6F13F009
:10122400020F06D000F0DEFA401B0228F5D9032095
:101234000BE1236813F0040F76D01D4B1B6C13F0E5
:10124400805F33D100230193194B1A6C42F0805212
:101254001A641B6C03F080530193019B0125164B08
:101264001B6813F4807F29D0A368012B3AD0052B87
:101274003ED00F4B1A6F22F001021A671A6F22F048
:1012840004021A67A368002B3CD000F0ABFA0646B0
:10129400074B1B6F13F0020F45D100F0A3FA801B1C
:1012A40041F288339842F3D90320CEE00025D6E7F3
:1012B4000038024000004742007000406B4A136847
:1012C40043F48073136000F08DFA0646674B1B6885
:1012D40013F4807FC8D100F085FA801B0228F5D969
:1012E4000320B2E0624A136F43F001031367C9E7B6
:1012F4005F4B1A6F42F004021A671A6F42F0010240
:101304001A67BFE700F06EFA0646594B1B6F13F0DD
:10131400020F08D000F066FA801B41F2883398422D
:10132400F3D9032091E0EDB9A369002B00F08C8080
:101334004F4A926802F00C02082A54D0022B17D0AC
:101344004C4B00221A6600F04DFA0446484B1B68C9
:1013540013F0007F45D000F045FA001B0228F5D9B0
:10136400032072E0424A136C23F080531364DBE7DA
:10137400404B00221A6600F035FA05463C4B1B68C8
:1013840013F0007F06D000F02DFA401B0228F5D997
:1013940003205AE0E369226A1343626A43EA821330
:1013A400A26A5208013A43EA0243E26A43EA026348
:1013B400226B43EA02732E4A53602E4B01221A66B3
:1013C40000F010FA04462A4B1B6813F0007F06D184
:1013D40000F008FA001B0228F5D9032035E00020AC
:1013E40033E0002031E0012B31D0214B5B6803F462
:1013F4008001E26991422CD103F03F02216A8A42C2
:1014040029D1616A47F6C0721A40B2EB811F24D118
:1014140003F44031A26A5208013AB1EB024F1ED1E3
:1014240003F07062E16AB2EB016F1AD103F0E0439A
:10143400226BB3EB027F16D1002006E00120704737
:10144400012002E0012000E0002002B070BD012074
:10145400FBE70120F9E70120F7E70120F5E7012088
:10146400F3E70120F1E70120EFE700BF007000403F
:10147400003802400000474200230F2B00F2E380B3
:1014840070B582B065E085684FEA430E032404FA20
:101494000EF425EA0405CC6804FA0EF42C438460A7
:1014A400446824EA02044A68C2F300129A402243C0
:1014B40042605CE0DC08083450F8242003F007059F
:1014C400AD004FF00F0E0EFA05FE22EA0E0E0A6969
:1014D400AA4042EA0E0240F824205CE0062200E022
:1014E400002202FA0EF22A430234574D45F8242012
:1014F400564A94686FEA0C0224EA0C054E6816F406
:10150400801F01D04CEA0405504CA560E46802EA4F
:1015140004054E6816F4001F01D04CEA04054B4C38
:10152400E560646802EA04054E6816F4003F01D0E1
:101534004CEA0405454C6560246822404D6815F466
:10154400803F01D04CEA0402404C226001330F2B4F
:1015540077D801229A400C6804EA020C32EA0404A7
:10156400F4D14C6804F00304013C012C8BD94A6883
:1015740002F00302032A09D0C4685D000322AA40D2
:1015840024EA02048A68AA402243C2604A6802F03C
:101594000302022A8ED004684FEA430E032202FAA1
:1015A4000EF224EA02044A6802F0030202FA0EF27E
:1015B400224302604A6812F4403FC7D000220192DD
:1015C400234A546C44F480445464526C02F48042C0
:1015D4000192019A9C08A51C1B4A52F8255003F05D
:1015E400030E4FEA8E0E0F2202FA0EF225EA0205CE
:1015F400184A90423FF474AF02F58062904216D0CC
:1016040002F58062904214D002F58062904212D0BA
:1016140002F58062904210D002F5806290420ED0B2
:1016240002F5806290423FF459AF072259E7012244
:1016340057E7022255E7032253E7042251E7052224
:101644004FE702B070BD704700380140003C0140D4
:1016540000380240000002400AB181617047090469
:1016640081617047436901EA030221EA030141EA07
:101674000241816170470000002808DB0901C9B2FA
:1016840000F1604000F5614080F80013704700F0FD
:101694000F000901C9B2014B1954704714ED00E061
:1016A40000B500F00700C0F1070CBCF1040F28BF1F
:1016B4004FF0040C031D062B0FD9C31E4FF0FF3E41
:1016C4000EFA0CF021EA000199400EFA03FE22EA18
:1016D4000E0241EA02005DF804FB0023EEE700007D
:1016E400074AD36823F4E0631B041B0C000200F4D4
:1016F400E060034343F0BF6343F40033D3607047B7
:1017040000ED00E010B50446054BD868C0F3022094
:10171400FFF7C6FF01462046FFF7AEFF10BD00BF2E
:1017240000ED00E00138B0F1807F0BD24FF0E023F0
:101734005861054AF02182F823100020986107229D
:101744001A6170470120704700ED00E010B50446AF
:101754000E4B1A784FF47A73B3FBF2F30C4A106809
:10176400B0FBF3F0FFF7DEFF68B90F2C01D90120BD
:101774000AE0002221464FF0FF30FFF7C3FF054B7C
:101784001C60002000E0012010BD00BF28000020E4
:10179400300000202C00002008B50B4B1A6842F4DE
:1017A40000721A601A6842F480621A601A6842F47D
:1017B40080721A600320FFF793FF0F20FFF7C6FF24
:1017C400FFF7F6F8002008BD003C0240034A116808
:1017D400034B1B780B441360704700BFB00000201C
:1017E40028000020014B1868704700BFB00000209B
:1017F40038B50446FFF7F6FF0546B4F1FF3F02D0C3
:10180400044B1B781C44FFF7EDFF401BA042FAD3A6
:1018140038BD00BF28000020034AD2F8883043F4C2
:101824007003C2F88830704700ED00E0DFF834D070
:10183400FFF7F2FF0C480D490D4A002302E0D4588B
:10184400C4500433C4188C42F9D30A4A0A4C002306
:1018540001E013600432A242FBD300F019F8FEF752
:101864007FFF7047000002200000002034000020A9
:101874002419000834000020B4000020FEE70244CC
:101884000346934200D1704703F8011BF9E70000B7
:1018940070B50D4D0D4C641BA4100026A64209D151
:1018A4000B4D0C4C00F018F8641BA4100026A64243
:1018B40005D170BD55F8043B98470136EEE755F85D
:1018C400043B98470136F2E71C1900081C1900086C
:1018D4001C19000820190008F8B500BFF8BC08BCA2
:1018E4009E467047F8B500BFF8BC08BC9E467047DA
:1018F40068656C6C6F205169204C69000040105081
:1019040000000000000000000102030406070809AB
:08191400F0E8FF7F0100000074
:04191C00E9010008D5
:04192000C5010008F5
:101924000002000000040240000100000004024024
:10193400400080000001000200080240000802404C
:1019440000080240000802400100000010000000EE
:041954000024F40077
:0400000508001831A6
:00000001FF
